{"abi":[{"type":"constructor","inputs":[],"stateMutability":"nonpayable"},{"type":"function","name":"addBalance","inputs":[{"name":"amount","type":"uint256","internalType":"uint256"}],"outputs":[{"name":"","type":"bool","internalType":"bool"}],"stateMutability":"nonpayable"},{"type":"function","name":"payInvoice","inputs":[{"name":"amount","type":"uint256","internalType":"uint256"}],"outputs":[{"name":"","type":"bool","internalType":"bool"}],"stateMutability":"nonpayable"},{"type":"function","name":"registerGuest","inputs":[],"outputs":[{"name":"","type":"bool","internalType":"bool"}],"stateMutability":"nonpayable"},{"type":"function","name":"registerHost","inputs":[],"outputs":[{"name":"","type":"bool","internalType":"bool"}],"stateMutability":"nonpayable"},{"type":"function","name":"sendInvoice","inputs":[{"name":"toAddr","type":"address","internalType":"address"},{"name":"amount","type":"uint256","internalType":"uint256"}],"outputs":[{"name":"","type":"bool","internalType":"bool"}],"stateMutability":"nonpayable"},{"type":"function","name":"viewBalance","inputs":[],"outputs":[{"name":"","type":"uint256","internalType":"uint256"}],"stateMutability":"view"},{"type":"function","name":"viewInvoice","inputs":[],"outputs":[{"name":"","type":"uint256","internalType":"uint256"},{"name":"","type":"uint256","internalType":"uint256"},{"name":"","type":"address","internalType":"address"},{"name":"","type":"address","internalType":"address"}],"stateMutability":"view"},{"type":"function","name":"viewRole","inputs":[],"outputs":[{"name":"","type":"uint8","internalType":"uint8"}],"stateMutability":"view"}],"bytecode":{"object":"0x608060405234801561001057600080fd5b50336000908152600160208181526040808420805460ff191684179055805160808101825284815291820184815290820184815260608301858152600380549586018155909552915160049093027fc2575a0e9e593c00f959f8c92f12db2869c3395a3b0502d05e2516446f71f85b810193909355517fc2575a0e9e593c00f959f8c92f12db2869c3395a3b0502d05e2516446f71f85c830155517fc2575a0e9e593c00f959f8c92f12db2869c3395a3b0502d05e2516446f71f85d820180546001600160a01b039283166001600160a01b03199182161790915592517fc2575a0e9e593c00f959f8c92f12db2869c3395a3b0502d05e2516446f71f85e9092018054929091169190921617905561078f8061012d6000396000f3fe608060405234801561001057600080fd5b50600436106100885760003560e01c80638f1358c41161005b5780638f1358c414610100578063ac60a6cd14610108578063d91921ed1461011b578063ea06d7241461012e57600080fd5b80632abd9c9d1461008d5780632eb852ee146100b75780633ff1e05b146100da578063425d8468146100f8575b600080fd5b3360009081526001602052604090205460ff1660405160ff90911681526020015b60405180910390f35b6100ca6100c53660046106b6565b610165565b60405190151581526020016100ae565b336000908152600260205260409020546040519081526020016100ae565b6100ca610365565b6100ca6103a4565b6100ca6101163660046106ee565b6103e3565b6100ca6101293660046106ee565b610555565b6101366105de565b6040805194855260208501939093526001600160a01b03918216928401929092521660608201526080016100ae565b3360009081526001602052604081205460ff166002146101875750600061035f565b6001600160a01b03831660009081526001602052604090205460ff166003146101b25750600061035f565b33600090815260046020526040902054158015906102075750336000908152600460205260409020546003805490919081106101f0576101f0610707565b906000526020600020906004020160010154600014155b156102145750600061035f565b6040805160808101825283815260208101848152339282019283526001600160a01b038681166060840190815260038054600181810183556000839052865160049092027fc2575a0e9e593c00f959f8c92f12db2869c3395a3b0502d05e2516446f71f85b81019290925594517fc2575a0e9e593c00f959f8c92f12db2869c3395a3b0502d05e2516446f71f85c82015595517fc2575a0e9e593c00f959f8c92f12db2869c3395a3b0502d05e2516446f71f85d870180549185166001600160a01b031992831617905591517fc2575a0e9e593c00f959f8c92f12db2869c3395a3b0502d05e2516446f71f85e909601805496909316959091169490941790559154909161032191610733565b3360009081526004602052604090205560035461034090600190610733565b6001600160a01b03851660009081526004602052604090205550600190505b92915050565b3360009081526001602052604081205460ff16156103835750600090565b50336000908152600160208190526040909120805460ff1916600217905590565b3360009081526001602052604081205460ff16156103c25750600090565b50336000908152600160208190526040909120805460ff1916600317905590565b3360009081526001602052604081205460ff1660031461040557506000919050565b33600090815260046020526040812054600380549192918390811061042c5761042c610707565b6000918252602080832033845260029091526040909220546004909102909101915084111561045f575060009392505050565b806001015484116104e2573360009081526002602052604081208054869290610489908490610733565b90915550506002818101546001600160a01b031660009081526020919091526040812080548692906104bc908490610746565b92505081905550838160010160008282546104d79190610733565b9091555061054b9050565b60018101543360009081526002602052604081208054909190610506908490610733565b909155505060018101546002808301546001600160a01b0316600090815260209190915260408120805490919061053e908490610746565b9091555050600060018201555b5060019392505050565b33600090815260016020819052604082205460ff16148061058857503360009081526001602052604090205460ff166002145b806105a557503360009081526001602052604090205460ff166003145b156105d65733600090815260026020526040812080548492906105c9908490610746565b9091555060019392505050565b506000919050565b3360009081526001602052604081205481908190819060ff16810361060e575060009250829150819050806106b0565b336000908152600460205260408120549081900361063a576000806000809450945094509450506106b0565b60006003828154811061064f5761064f610707565b60009182526020918290206040805160808101825260049093029091018054808452600182015494840185905260028201546001600160a01b0390811693850184905260039092015490911660609093018390529850919650909450925050505b90919293565b600080604083850312156106c957600080fd5b82356001600160a01b03811681146106e057600080fd5b946020939093013593505050565b60006020828403121561070057600080fd5b5035919050565b634e487b7160e01b600052603260045260246000fd5b634e487b7160e01b600052601160045260246000fd5b8181038181111561035f5761035f61071d565b8082018082111561035f5761035f61071d56fea26469706673582212200e3cd9176e3095da688c5f684c345f76280b692e4da48e9d3ee9e7c167cb9a3b64736f6c63430008190033","linkReferences":{}},"methodIdentifiers":{"addBalance(uint256)":"d91921ed","payInvoice(uint256)":"ac60a6cd","registerGuest()":"8f1358c4","registerHost()":"425d8468","sendInvoice(address,uint256)":"2eb852ee","viewBalance()":"3ff1e05b","viewInvoice()":"ea06d724","viewRole()":"2abd9c9d"},"id":23}