{"abi":[{"type":"constructor","inputs":[],"stateMutability":"nonpayable"},{"type":"function","name":"buySneaker","inputs":[{"name":"sneakerId","type":"uint256","internalType":"uint256"}],"outputs":[],"stateMutability":"payable"},{"type":"function","name":"confirmDelivery","inputs":[{"name":"sneakerId","type":"uint256","internalType":"uint256"}],"outputs":[],"stateMutability":"nonpayable"},{"type":"function","name":"getListing","inputs":[{"name":"seller","type":"address","internalType":"address"}],"outputs":[{"name":"sneakerId","type":"uint256","internalType":"uint256"}],"stateMutability":"view"},{"type":"function","name":"listSneaker","inputs":[{"name":"sneakerId","type":"uint256","internalType":"uint256"}],"outputs":[],"stateMutability":"payable"},{"type":"function","name":"registerBuyer","inputs":[],"outputs":[{"name":"","type":"bool","internalType":"bool"}],"stateMutability":"nonpayable"},{"type":"function","name":"registerSeller","inputs":[],"outputs":[{"name":"","type":"bool","internalType":"bool"}],"stateMutability":"nonpayable"},{"type":"function","name":"withdrawFunds","inputs":[],"outputs":[],"stateMutability":"nonpayable"},{"type":"function","name":"withdrawListing","inputs":[],"outputs":[],"stateMutability":"nonpayable"}],"bytecode":{"object":"0x6080604052348015600f57600080fd5b50600080546001600160a01b031916331790556104a9806100316000396000f3fe60806040526004361061007b5760003560e01c8063a365a85e1161004e578063a365a85e14610118578063c0ccb6b91461012d578063d472946014610140578063fd84cb971461015557600080fd5b8063084af0b21461008057806324600fc3146100c957806352c9224c146100e05780637382bc6a14610105575b600080fd5b34801561008c57600080fd5b506100b661009b3660046103e3565b6001600160a01b031660009081526003602052604090205490565b6040519081526020015b60405180910390f35b3480156100d557600080fd5b506100de610170565b005b3480156100ec57600080fd5b506100f5610208565b60405190151581526020016100c0565b6100de610113366004610413565b610248565b34801561012457600080fd5b506100f56102bb565b6100de61013b366004610413565b6102f5565b34801561014c57600080fd5b506100de610392565b34801561016157600080fd5b506100de610113366004610413565b33600090815260026020526040902054806101c95760405162461bcd60e51b81526020600482015260146024820152734e6f2066756e647320746f20776974686472617760601b60448201526064015b60405180910390fd5b336000818152600260205260408082208290555183156108fc0291849190818181858888f19350505050158015610204573d6000803e3d6000fd5b5050565b3360009081526001602052604081205460ff1681036102425750336000908152600160208190526040909120805460ff1916600217905590565b50600090565b33600090815260016020526040902054819060ff166003146102045760405162461bcd60e51b815260206004820152602660248201527f4f6e6c79207468652062757965722063616e20706572666f726d20746869732060448201526530b1ba34b7b760d11b60648201526084016101c0565b3360009081526001602052604081205460ff1681036102425750336000908152600160208190526040909120805460ff1916600317905590565b33600090815260016020526040902054819060ff166002146103295760405162461bcd60e51b81526004016101c09061042c565b336000908152600360205260409020541561037f5760405162461bcd60e51b8152602060048201526016602482015275416c726561647920686176652061206c697374696e6760501b60448201526064016101c0565b5033600090815260036020526040902055565b3360009081526003602090815260408083205460019092529091205460ff166002146103d05760405162461bcd60e51b81526004016101c09061042c565b5033600090815260036020526040812055565b6000602082840312156103f557600080fd5b81356001600160a01b038116811461040c57600080fd5b9392505050565b60006020828403121561042557600080fd5b5035919050565b60208082526027908201527f4f6e6c79207468652073656c6c65722063616e20706572666f726d20746869736040820152661030b1ba34b7b760c91b60608201526080019056fea2646970667358221220c59e069a9be60862c036fe2bcb3661df12076da306fa1ed3eeb98fb466b532e164736f6c63430008190033","linkReferences":{}},"methodIdentifiers":{"buySneaker(uint256)":"7382bc6a","confirmDelivery(uint256)":"fd84cb97","getListing(address)":"084af0b2","listSneaker(uint256)":"c0ccb6b9","registerBuyer()":"a365a85e","registerSeller()":"52c9224c","withdrawFunds()":"24600fc3","withdrawListing()":"d4729460"},"id":23}