{"abi":[{"type":"constructor","inputs":[],"stateMutability":"nonpayable"},{"type":"function","name":"buySneaker","inputs":[{"name":"sneakerId","type":"uint256","internalType":"uint256"}],"outputs":[],"stateMutability":"payable"},{"type":"function","name":"confirmDelivery","inputs":[{"name":"sneakerId","type":"uint256","internalType":"uint256"}],"outputs":[],"stateMutability":"nonpayable"},{"type":"function","name":"getListing","inputs":[{"name":"seller","type":"address","internalType":"address"}],"outputs":[{"name":"sneakerId","type":"uint256","internalType":"uint256"}],"stateMutability":"view"},{"type":"function","name":"getSellerBySneakerId","inputs":[{"name":"sneakerId","type":"uint256","internalType":"uint256"}],"outputs":[{"name":"seller","type":"address","internalType":"address"}],"stateMutability":"view"},{"type":"function","name":"listSneaker","inputs":[{"name":"sneakerId","type":"uint256","internalType":"uint256"}],"outputs":[],"stateMutability":"nonpayable"},{"type":"function","name":"noDelivery","inputs":[{"name":"sneakerId","type":"uint256","internalType":"uint256"}],"outputs":[],"stateMutability":"nonpayable"},{"type":"function","name":"registerBuyer","inputs":[],"outputs":[{"name":"","type":"bool","internalType":"bool"}],"stateMutability":"nonpayable"},{"type":"function","name":"registerSeller","inputs":[],"outputs":[{"name":"","type":"bool","internalType":"bool"}],"stateMutability":"nonpayable"},{"type":"function","name":"withdrawListing","inputs":[],"outputs":[],"stateMutability":"nonpayable"}],"bytecode":{"object":"0x6080604052348015600f57600080fd5b50600080546001600160a01b031916331790556108b6806100316000396000f3fe6080604052600436106100865760003560e01c8063a365a85e11610059578063a365a85e1461012e578063c0ccb6b914610143578063d472946014610163578063dcd7bfca14610178578063fd84cb97146101c657600080fd5b8063084af0b21461008b5780631b2ff25b146100d457806352c9224c146100f65780637382bc6a1461011b575b600080fd5b34801561009757600080fd5b506100c16100a6366004610723565b6001600160a01b031660009081526003602052604090205490565b6040519081526020015b60405180910390f35b3480156100e057600080fd5b506100f46100ef366004610753565b6101e6565b005b34801561010257600080fd5b5061010b6102ad565b60405190151581526020016100cb565b6100f4610129366004610753565b6102ed565b34801561013a57600080fd5b5061010b610418565b34801561014f57600080fd5b506100f461015e366004610753565b610452565b34801561016f57600080fd5b506100f461050d565b34801561018457600080fd5b506101ae610193366004610753565b6000908152600460205260409020546001600160a01b031690565b6040516001600160a01b0390911681526020016100cb565b3480156101d257600080fd5b506100f46101e1366004610753565b6105c5565b3360009081526001602052604090205460ff166003146102215760405162461bcd60e51b81526004016102189061076c565b60405180910390fd5b6000818152600660205260409020546001600160a01b031633146102575760405162461bcd60e51b8152600401610218906107b2565b306000908152600260205260408120805491829190610276838061080d565b9091555050604051339082156108fc029083906000818181858888f193505050501580156102a8573d6000803e3d6000fd5b505050565b3360009081526001602052604081205460ff1681036102e75750336000908152600160208190526040909120805460ff1916600217905590565b50600090565b3360009081526001602052604090205460ff1660031461031f5760405162461bcd60e51b81526004016102189061076c565b6000818152600460205260409020546001600160a01b0316806103845760405162461bcd60e51b815260206004820152601b60248201527f536e65616b6572206e6f74206c697374656420666f722073616c6500000000006044820152606401610218565b600034116103d45760405162461bcd60e51b815260206004820152601f60248201527f56616c7565206d7573742062652067726561746572207468616e207a65726f006044820152606401610218565b600082815260066020908152604080832080546001600160a01b0319163317905530835260029091528120805434929061040f908490610826565b90915550505050565b3360009081526001602052604081205460ff1681036102e75750336000908152600160208190526040909120805460ff1916600317905590565b3360009081526001602052604090205460ff166002146104845760405162461bcd60e51b815260040161021890610839565b33600090815260036020526040902054156104da5760405162461bcd60e51b8152602060048201526016602482015275416c726561647920686176652061206c697374696e6760501b6044820152606401610218565b336000818152600360209081526040808320859055938252600490529190912080546001600160a01b0319169091179055565b3360009081526001602052604090205460ff1660021461053f5760405162461bcd60e51b815260040161021890610839565b33600090815260036020526040812054908190036105985760405162461bcd60e51b81526020600482015260166024820152754e6f206c697374696e6720746f20776974686472617760501b6044820152606401610218565b336000908152600360209081526040808320839055928252600490522080546001600160a01b0319169055565b3360009081526001602052604090205460ff166003146105f75760405162461bcd60e51b81526004016102189061076c565b6000818152600660205260409020546001600160a01b0316331461062d5760405162461bcd60e51b8152600401610218906107b2565b6000818152600460205260409020546001600160a01b0316806106855760405162461bcd60e51b815260206004820152601060248201526f14d95b1b195c881b9bdd08199bdd5b9960821b6044820152606401610218565b30600090815260026020526040902054806106d95760405162461bcd60e51b8152602060048201526014602482015273273790333ab73239903a37903a3930b739b332b960611b6044820152606401610218565b6001600160a01b0382166000818152600260205260408082208290555183156108fc0291849190818181858888f1935050505015801561071d573d6000803e3d6000fd5b50505050565b60006020828403121561073557600080fd5b81356001600160a01b038116811461074c57600080fd5b9392505050565b60006020828403121561076557600080fd5b5035919050565b60208082526026908201527f4f6e6c79207468652062757965722063616e20706572666f726d20746869732060408201526530b1ba34b7b760d11b606082015260800190565b60208082526025908201527f596f7520617265206e6f7420746865206275796572206f66207468697320736e60408201526432b0b5b2b960d91b606082015260800190565b634e487b7160e01b600052601160045260246000fd5b81810381811115610820576108206107f7565b92915050565b80820180821115610820576108206107f7565b60208082526027908201527f4f6e6c79207468652073656c6c65722063616e20706572666f726d20746869736040820152661030b1ba34b7b760c91b60608201526080019056fea2646970667358221220bb7afdbe8dedd145cbaed2ec451106916ccd07500d41ae3a4b58f5d9f360965564736f6c63430008190033","linkReferences":{}},"methodIdentifiers":{"buySneaker(uint256)":"7382bc6a","confirmDelivery(uint256)":"fd84cb97","getListing(address)":"084af0b2","getSellerBySneakerId(uint256)":"dcd7bfca","listSneaker(uint256)":"c0ccb6b9","noDelivery(uint256)":"1b2ff25b","registerBuyer()":"a365a85e","registerSeller()":"52c9224c","withdrawListing()":"d4729460"},"id":23}