{"abi":[{"type":"constructor","inputs":[],"stateMutability":"nonpayable"},{"type":"function","name":"buySneaker","inputs":[{"name":"sneakerId","type":"uint256","internalType":"uint256"}],"outputs":[],"stateMutability":"payable"},{"type":"function","name":"confirmDelivery","inputs":[{"name":"sneakerId","type":"uint256","internalType":"uint256"}],"outputs":[],"stateMutability":"nonpayable"},{"type":"function","name":"getListing","inputs":[{"name":"seller","type":"address","internalType":"address"}],"outputs":[{"name":"sneakerId","type":"uint256","internalType":"uint256"}],"stateMutability":"view"},{"type":"function","name":"listSneaker","inputs":[{"name":"sneakerId","type":"uint256","internalType":"uint256"}],"outputs":[],"stateMutability":"nonpayable"},{"type":"function","name":"noDelivery","inputs":[{"name":"sneakerId","type":"uint256","internalType":"uint256"}],"outputs":[],"stateMutability":"nonpayable"},{"type":"function","name":"registerBuyer","inputs":[],"outputs":[{"name":"","type":"bool","internalType":"bool"}],"stateMutability":"nonpayable"},{"type":"function","name":"registerSeller","inputs":[],"outputs":[{"name":"","type":"bool","internalType":"bool"}],"stateMutability":"nonpayable"},{"type":"function","name":"withdrawFunds","inputs":[],"outputs":[],"stateMutability":"nonpayable"},{"type":"function","name":"withdrawListing","inputs":[],"outputs":[],"stateMutability":"nonpayable"}],"bytecode":{"object":"0x6080604052348015600f57600080fd5b50600080546001600160a01b03191633179055610910806100316000396000f3fe6080604052600436106100865760003560e01c80637382bc6a116100595780637382bc6a14610130578063a365a85e14610143578063c0ccb6b914610158578063d472946014610178578063fd84cb971461018d57600080fd5b8063084af0b21461008b5780631b2ff25b146100d457806324600fc3146100f657806352c9224c1461010b575b600080fd5b34801561009757600080fd5b506100c16100a636600461077d565b6001600160a01b031660009081526003602052604090205490565b6040519081526020015b60405180910390f35b3480156100e057600080fd5b506100f46100ef3660046107ad565b6101ad565b005b34801561010257600080fd5b506100f4610274565b34801561011757600080fd5b50610120610307565b60405190151581526020016100cb565b6100f461013e3660046107ad565b610347565b34801561014f57600080fd5b50610120610472565b34801561016457600080fd5b506100f46101733660046107ad565b6104ac565b34801561018457600080fd5b506100f4610567565b34801561019957600080fd5b506100f46101a83660046107ad565b61061f565b3360009081526001602052604090205460ff166003146101e85760405162461bcd60e51b81526004016101df906107c6565b60405180910390fd5b6000818152600660205260409020546001600160a01b0316331461021e5760405162461bcd60e51b81526004016101df9061080c565b30600090815260026020526040812080549182919061023d8380610867565b9091555050604051339082156108fc029083906000818181858888f1935050505015801561026f573d6000803e3d6000fd5b505050565b33600090815260026020526040902054806102c85760405162461bcd60e51b81526020600482015260146024820152734e6f2066756e647320746f20776974686472617760601b60448201526064016101df565b336000818152600260205260408082208290555183156108fc0291849190818181858888f19350505050158015610303573d6000803e3d6000fd5b5050565b3360009081526001602052604081205460ff1681036103415750336000908152600160208190526040909120805460ff1916600217905590565b50600090565b3360009081526001602052604090205460ff166003146103795760405162461bcd60e51b81526004016101df906107c6565b6000818152600460205260409020546001600160a01b0316806103de5760405162461bcd60e51b815260206004820152601b60248201527f536e65616b6572206e6f74206c697374656420666f722073616c65000000000060448201526064016101df565b6000341161042e5760405162461bcd60e51b815260206004820152601f60248201527f56616c7565206d7573742062652067726561746572207468616e207a65726f0060448201526064016101df565b600082815260066020908152604080832080546001600160a01b03191633179055308352600290915281208054349290610469908490610880565b90915550505050565b3360009081526001602052604081205460ff1681036103415750336000908152600160208190526040909120805460ff1916600317905590565b3360009081526001602052604090205460ff166002146104de5760405162461bcd60e51b81526004016101df90610893565b33600090815260036020526040902054156105345760405162461bcd60e51b8152602060048201526016602482015275416c726561647920686176652061206c697374696e6760501b60448201526064016101df565b336000818152600360209081526040808320859055938252600490529190912080546001600160a01b0319169091179055565b3360009081526001602052604090205460ff166002146105995760405162461bcd60e51b81526004016101df90610893565b33600090815260036020526040812054908190036105f25760405162461bcd60e51b81526020600482015260166024820152754e6f206c697374696e6720746f20776974686472617760501b60448201526064016101df565b336000908152600360209081526040808320839055928252600490522080546001600160a01b0319169055565b3360009081526001602052604090205460ff166003146106515760405162461bcd60e51b81526004016101df906107c6565b6000818152600660205260409020546001600160a01b031633146106875760405162461bcd60e51b81526004016101df9061080c565b6000818152600460205260409020546001600160a01b0316806106df5760405162461bcd60e51b815260206004820152601060248201526f14d95b1b195c881b9bdd08199bdd5b9960821b60448201526064016101df565b30600090815260026020526040902054806107335760405162461bcd60e51b8152602060048201526014602482015273273790333ab73239903a37903a3930b739b332b960611b60448201526064016101df565b6001600160a01b0382166000818152600260205260408082208290555183156108fc0291849190818181858888f19350505050158015610777573d6000803e3d6000fd5b50505050565b60006020828403121561078f57600080fd5b81356001600160a01b03811681146107a657600080fd5b9392505050565b6000602082840312156107bf57600080fd5b5035919050565b60208082526026908201527f4f6e6c79207468652062757965722063616e20706572666f726d20746869732060408201526530b1ba34b7b760d11b606082015260800190565b60208082526025908201527f596f7520617265206e6f7420746865206275796572206f66207468697320736e60408201526432b0b5b2b960d91b606082015260800190565b634e487b7160e01b600052601160045260246000fd5b8181038181111561087a5761087a610851565b92915050565b8082018082111561087a5761087a610851565b60208082526027908201527f4f6e6c79207468652073656c6c65722063616e20706572666f726d20746869736040820152661030b1ba34b7b760c91b60608201526080019056fea26469706673582212208668616adf950f85aaedb3cc4cba4339f2c4b88794bb106b77bbb283216f002064736f6c63430008190033","linkReferences":{}},"methodIdentifiers":{"buySneaker(uint256)":"7382bc6a","confirmDelivery(uint256)":"fd84cb97","getListing(address)":"084af0b2","listSneaker(uint256)":"c0ccb6b9","noDelivery(uint256)":"1b2ff25b","registerBuyer()":"a365a85e","registerSeller()":"52c9224c","withdrawFunds()":"24600fc3","withdrawListing()":"d4729460"},"id":23}